{
  "contractName": "BlockchainData",
  "abi": [
    {
      "constant": false,
      "inputs": [
        {
          "name": "dateTime",
          "type": "bytes32"
        },
        {
          "name": "sequence",
          "type": "uint256"
        },
        {
          "name": "hashOfFile",
          "type": "string"
        },
        {
          "name": "hashOfFileChunk",
          "type": "string"
        },
        {
          "name": "uuid",
          "type": "string"
        },
        {
          "name": "miners",
          "type": "uint256[]"
        }
      ],
      "name": "writeFileChunksToDatabase",
      "outputs": [
        {
          "name": "",
          "type": "uint256"
        }
      ],
      "payable": false,
      "stateMutability": "nonpayable",
      "type": "function"
    },
    {
      "constant": true,
      "inputs": [
        {
          "name": "hashOfFile",
          "type": "string"
        },
        {
          "name": "sequence",
          "type": "uint256"
        },
        {
          "name": "hashOfFile",
          "type": "string"
        },
        {
          "name": "hashOfFileChunk",
          "type": "string"
        },
        {
          "name": "uuid",
          "type": "bytes32"
        },
        {
          "name": "miners",
          "type": "uint256[]"
        }
      ],
      "name": "getNumberOfFileChunks",
      "outputs": [
        {
          "name": "",
          "type": "uint256"
        }
      ],
      "payable": false,
      "stateMutability": "view",
      "type": "function"
    },
    {
      "inputs": [
        {
          "name": "hash",
          "type": "string"
        },
        {
          "name": "index",
          "type": "uint256"
        }
      ],
      "payable": false,
      "stateMutability": "view",
      "type": "function",
      "constant": true,
      "name": "getFileChunksFromDatabase",
      "outputs": [
        {
          "name": "",
          "type": "bytes32"
        },
        {
          "name": "",
          "type": "uint256"
        },
        {
          "name": "",
          "type": "string"
        },
        {
          "name": "",
          "type": "string"
        },
        {
          "name": "",
          "type": "uint256[]"
        }
      ]
    },
    {
      "inputs": [],
      "payable": false,
      "stateMutability": "nonpayable",
      "type": "constructor"
    }
  ],
  "bytecode": "0x6060604052341561000f57600080fd5b610b748061001e6000396000f300606060405260043610610057576000357c0100000000000000000000000000000000000000000000000000000000900463ffffffff168063eed8def31461005c578063ef8513a914610195578063f3a9996f14610206575b600080fd5b341561006757600080fd5b61019360048080356000191690602001909190803590602001909190803590602001908201803590602001908080601f0160208091040260200160405190810160405280939291908181526020018383808284378201915050505050509190803590602001908201803590602001908080601f0160208091040260200160405190810160405280939291908181526020018383808284378201915050505050509190803590602001908201803590602001908080601f01602080910402602001604051908101604052809392919081815260200183838082843782019150505050505091908035906020019082018035906020019080806020026020016040519081016040528093929190818152602001838360200280828437820191505050505050919050506103af565b005b34156101a057600080fd5b6101f0600480803590602001908201803590602001908080601f016020809104026020016040519081016040528093929190818152602001838380828437820191505050505050919050506104fb565b6040518082815260200191505060405180910390f35b341561021157600080fd5b61026a600480803590602001908201803590602001908080601f01602080910402602001604051908101604052809392919081815260200183838082843782019150505050505091908035906020019091905050610572565b604051808660001916600019168152602001858152602001806020018060200180602001848103845287818151815260200191508051906020019080838360005b838110156102c65780820151818401526020810190506102ab565b50505050905090810190601f1680156102f35780820380516001836020036101000a031916815260200191505b50848103835286818151815260200191508051906020019080838360005b8381101561032c578082015181840152602081019050610311565b50505050905090810190601f1680156103595780820380516001836020036101000a031916815260200191505b50848103825285818151815260200191508051906020019060200280838360005b8381101561039557808201518184015260208101905061037a565b505050509050019850505050505050505060405180910390f35b6103b76108b3565b600060a060405190810160405280896000191681526020018881526020018681526020018581526020018481525091506000866040518082805190602001908083835b60208310151561041f57805182526020820191506020810190506020830392506103fa565b6001836020036101000a0380198251168184511680821785525050505050509050019150509081526020016040518091039020905080805480600101828161046791906108f8565b91600052602060002090600502016000849091909150600082015181600001906000191690556020820151816001015560408201518160020190805190602001906104b392919061092a565b5060608201518160030190805190602001906104d092919061092a565b5060808201518160040190805190602001906104ed9291906109aa565b505050505050505050505050565b600080826040518082805190602001908083835b602083101515610534578051825260208201915060208101905060208303925061050f565b6001836020036101000a0380198251168184511680821785525050505050509050019150509081526020016040518091039020805490509050919050565b60008061057d6109f7565b6105856109f7565b61058d610a0b565b6000806105986109f7565b6105a06109f7565b6105a8610a0b565b6105b0610a1f565b6105b86108b3565b60056040518059106105c75750595b9080825280602002602001820160405250925060008e6040518082805190602001908083835b60208310151561061257805182526020820191506020810190506020830392506105ed565b6001836020036101000a0380198251168184511680821785525050505050509050019150509081526020016040518091039020805480602002602001604051908101604052809291908181526020016000905b82821015610850578382906000526020600020906005020160a0604051908101604052908160008201546000191660001916815260200160018201548152602001600282018054600181600116156101000203166002900480601f01602080910402602001604051908101604052809291908181526020018280546001816001161561010002031660029004801561073e5780601f106107135761010080835404028352916020019161073e565b820191906000526020600020905b81548152906001019060200180831161072157829003601f168201915b50505050508152602001600382018054600181600116156101000203166002900480601f0160208091040260200160405190810160405280929190818152602001828054600181600116156101000203166002900480156107e05780601f106107b5576101008083540402835291602001916107e0565b820191906000526020600020905b8154815290600101906020018083116107c357829003601f168201915b505050505081526020016004820180548060200260200160405190810160405280929190818152602001828054801561083857602002820191906000526020600020905b815481526020019060010190808311610824575b50505050508152505081526020019060010190610665565b505050509150818d81518110151561086457fe5b906020019060200201519050806000015196508060200151955080604001519450806060015193508060800151925086868686869b509b509b509b509b50505050505050509295509295909350565b60a06040519081016040528060008019168152602001600081526020016108d8610a33565b81526020016108e5610a33565b81526020016108f2610a47565b81525090565b815481835581811511610925576005028160050283600052602060002091820191016109249190610a5b565b5b505050565b828054600181600116156101000203166002900490600052602060002090601f016020900481019282601f1061096b57805160ff1916838001178555610999565b82800160010185558215610999579182015b8281111561099857825182559160200191906001019061097d565b5b5090506109a69190610aba565b5090565b8280548282559060005260206000209081019282156109e6579160200282015b828111156109e55782518255916020019190600101906109ca565b5b5090506109f39190610aba565b5090565b602060405190810160405280600081525090565b602060405190810160405280600081525090565b602060405190810160405280600081525090565b602060405190810160405280600081525090565b602060405190810160405280600081525090565b610ab791905b80821115610ab3576000808201600090556001820160009055600282016000610a8a9190610adf565b600382016000610a9a9190610adf565b600482016000610aaa9190610b27565b50600501610a61565b5090565b90565b610adc91905b80821115610ad8576000816000905550600101610ac0565b5090565b90565b50805460018160011615610100020316600290046000825580601f10610b055750610b24565b601f016020900490600052602060002090810190610b239190610aba565b5b50565b5080546000825590600052602060002090810190610b459190610aba565b505600a165627a7a72305820930170bcbdaa83e6480303fafbcc4fec20ce21c30d67e65b31aba5de0ebb04540029",
  "source": "pragma solidity ^0.4.11;\r\n\r\n/**\r\n This contract is used to pass data to blockchain to store on miners data\r\n */\r\ncontract BlockchainData {\r\n\r\n  // entity made to store chunks of file in the database\r\n    struct FileDataChunk {       \r\n        bytes32 dateTime;\r\n        uint sequence;       \r\n        string hashOfFileChunk;\r\n        string uuid;        \r\n        uint256[] miners;\r\n    }\r\n\r\n  mapping (string => FileDataChunk[])  filedataMapping;\r\n \r\n  //Empty Constructor for blockchain contract , we can further make any initialisations if required  \r\n  function BlockchainData() public {\r\n     \r\n  }\r\n\r\n  \r\n  //This Function is used to write data into the database \r\n  function writeFileChunksToDatabase(bytes32 dateTime,uint sequence,string hashOfFile, string hashOfFileChunk,string uuid,uint256[] miners) public {         \r\n    //first get any previous chunks of file as array    \r\n    FileDataChunk memory filedatachunk = FileDataChunk(dateTime,sequence,hashOfFileChunk,uuid,miners);\r\n    FileDataChunk[] storage tempdatachunks = filedataMapping[hashOfFile];\r\n    tempdatachunks.push(filedatachunk);\r\n        \r\n}\r\n \r\n // This function returns the all chunk written for the particular UUID of the file\r\n /*function getFileChunksFromDatabase(string hash) constant public returns \r\n (bytes32[],uint[], string[5] ,bytes32[],uint256[5][] ) \r\n {  \r\n\r\n    bytes32[] memory datetime = new bytes32[](5);\r\n    uint[] memory sequence = new uint[](5);   \r\n    string[] memory hashOfFileChunk = new string[](5);\r\n    bytes32[] memory uuid = new bytes32[](5);\r\n    uint256[5][] memory miners = new uint256[5][](5);\r\n\r\n    FileDataChunk[]  memory filedataobj = filedataMapping[hash];\r\n\r\n     for (uint i = 0; i < filedataobj.length; ++i) {      \r\n        datetime[i] = filedataobj[i].dateTime;\r\n        sequence[i] = filedataobj[i].sequence;         \r\n        hashOfFileChunk[i] = filedataobj[i].hashOfFileChunk;         \r\n        uuid[i] = filedataobj[i].uuid;  \r\n\r\n        for (uint j = 0;j < 5; j++) {                \r\n            miners[i][j] = filedataobj[i].miners[j];\r\n        }       \r\n  }\r\n    return (datetime, sequence,hashOfFileChunk,uuid,miners);\r\n }*/\r\n\r\n  // This function returns the particular chunk written for the particular hash of the file\r\n function getFileChunksFromDatabase(string hash,uint index) constant public returns \r\n (bytes32,uint, string ,string,uint256[]) \r\n {  \r\n      bytes32  datetime; \r\n      uint  sequence;   \r\n      string  memory hashOfFileChunk; \r\n      string memory uuid;\r\n      uint256[] memory miners = new uint256[](5);\r\n\r\n      FileDataChunk[]  memory filedataobj = filedataMapping[hash];\r\n      FileDataChunk memory filedatatempobj = filedataobj[index];     \r\n      datetime = filedatatempobj.dateTime;\r\n      sequence = filedatatempobj.sequence;   \r\n      hashOfFileChunk = filedatatempobj.hashOfFileChunk;     \r\n      uuid = filedatatempobj.uuid;\r\n      miners = filedatatempobj.miners;    \r\n\r\n      return (datetime, sequence,hashOfFileChunk,uuid,miners);\r\n }\r\n\r\n   //This function is used to get number of chunks written for the file\r\n   function getNumberOfFileChunks(string hashOfFile) view public returns (uint) {\r\n     return filedataMapping[hashOfFile].length;      \r\n   }\r\n}\r\n\r\n//BlockchainData.deployed().then(function(instance) { return instance.writeFileChunksToDatabase(\"2013-09-29T18:46:19Z\",1,\"be07077ff8437f7eba78d3d53663261d\",\"fg\",\"1890\",['12','123','1234']); });\r\n//BlockchainData.deployed().then(function(instance){return instance.getNumberOfFileChunks('29ee345');}).then(function(output){console.log(output.toLocaleString())});\r\n//BlockchainData.deployed().then(function(instance){return instance.getFileChunksFromDatabase('be07077ff8437f7eba78d3d53663261');}).then(function(output){console.log(output.toLocaleString())});\r\n//BlockchainData.deployed().then(function(instance) { return instance.writeFileChunksToDatabase(\"2013-09-29T18:46:19Z\",1,\"e815d0dbe0957d82a91f12458c7714047b9090515513be8d6f64640faf223c70\",\"e815d0dbe0957d82a91f12458c7714047b9090515513be8d6f64640faf223c70\",\"Ihr5yATvS9maB4iEx01qJNiMlJo5gbug06LzlTfa\",['12','123','1234','23','34']); });\r\n//BlockchainData.deployed().then(function(instance){return instance.getFileChunksFromDatabase('e815d0dbe0957d82a91f12458c7714047b9090515513be8d6f64640faf223c70',0);}).then(function(output){console.log(output.toLocaleString())});\r\n",
  "sourcePath": "E:\\Workspaces\\Blockchain\\Iagon\\IagonSmartContract\\contracts\\BlockchainData.sol",
  "compiler": {
    "name": "solc",
    "version": "0.4.18+commit.9cf6e910.Emscripten.clang"
  },
  "schemaVersion": "1.0.1",
  "updatedAt": "2018-01-15T08:57:10.085Z"
}